:0410000033EF3DF09D
:107A440083887D0E336EAC0EE82EFED7332EFCD722
:107A540083987D0E336EAC0EE82EFED7332EFCD702
:107A64001200476A8E0EF66E7A0EF76E000EF86EEE
:107A740000EE01F010EE32F00900F5CFEEFFE55014
:107A8400E150FAE1000161EF3FF05065726D6973F6
:107A940073696F6E204772616E746564005065721D
:107AA4006D697373696F6E2044656E696564004324
:107AB4006C6F73696E6720446F6F720033503410BB
:107AC400D8B41200000E376E000E366E0AD0100EB7
:107AD400356E940EE82EFED7352EFCD700D0364AEC
:107AE400372A3350365C34503758D8B01200EFD7A9
:107AF400000E396E0C0E386E38503910D8B412009E
:107B04008284000E346E020E336E60EC3DF082947B
:107B1400000E346E120E336E60EC3DF03806D8A0C1
:107B24003906EAD7000E396E000E386E395015E169
:107B34000C0E385CD8B012008284000E346E010E34
:107B4400336E60EC3DF08294000E346E120E336E90
:107B540060EC3DF0384A392AE9D71200000E426E33
:107B6400000E416E425018E1640E415CD8B0120020
:107B74000B0E3B6EB80E3A6E69EC3EF081B003D04A
:107B8400406A402A01D0406A81504018FE0B4018D8
:107B9400816E414A422AE6D71200000E386E000E6A
:107BA400376E35503610D8B41CD0010E396E04D05F
:107BB400D89035363636392A36AEFAD7D890373695
:107BC40038363550335C36503458D8A005D035504B
:107BD400335E3650345A3780D89036323532392EA7
:107BE400EDD737C033F038C034F01200356E839CC3
:107BF4003F0E346E550EE82EFED7342EFCD700F01F
:107C040035C036F036380F0B366E36500F0B836E98
:107C14007D0E346EAC0EE82EFED7342EFCD722EC4B
:107C24003DF07D0E346EAC0EE82EFED7342EFCD71C
:107C340035C036F036500F0B836E7D0E346EAC0EAD
:107C4400E82EFED7342EFCD722EC3DF07D0E346EA8
:107C5400AC0EE82EFED7342EFCD71200000E956E23
:107C6400000E836E8398839C839A000E396E000EF7
:107C7400386E39BE06D039500FE1640E385CD8B086
:107C84000BD09C0E376ED70EE82EFED7372EFCD7BE
:107C940000F0384A392AEDD7330EF8EC3DF0320EB5
:107CA400F8EC3DF0280EF8EC3DF00E0EF8EC3DF04B
:107CB400060EF8EC3DF0010EF8EC3DF09C0E376E2C
:107CC400D70EE82EFED7372EFCD700F012003AC0AC
:107CD4003EF03BC03FF03EC033F03FC034F0000EF6
:107CE400366E140E356ECFEC3DF033C03EF034C02A
:107CF4003FF03B5004E1050E3A5CD8A012003B5023
:107D040008E10A0E3A5CD8B004D01C0EE82EFED767
:107D140012003B5008E1140E3A5CD8B004D03C0E7B
:107D2400E82EFED71200000E3D6E000E3C6E05D00C
:107D3400500EE82EFED73C4A3D2A3E503C5C3F5054
:107D44003D58D8B01200F4D7356E838C3F0E346E94
:107D5400550EE82EFED7342EFCD700F035C036F091
:107D640036380F0B366E36500F0B836E7D0E346E25
:107D7400AC0EE82EFED7342EFCD7838C7D0E346EE9
:107D8400AC0EE82EFED7342EFCD722EC3DF07D0E4F
:107D9400346EAC0EE82EFED7342EFCD735C036F048
:107DA40036500F0B836E7D0E346EAC0EE82EFED76C
:107DB400342EFCD7838C9C0E346ED70EE82EFED75F
:107DC400342EFCD700F022EC3DF09C0E346ED70E1E
:107DD400E82EFED7342EFCD700F012008090000E5F
:107DE400426E000E416E42501AE1140E415CD8B04E
:107DF40016D0130E3B6E880E3A6E69EC3EF081B0DD
:107E040003D0406A402A01D0406A81504018FE0BDA
:107E14004018816E414A422A425001E1E6D78080EF
:107E2400010E346EF40E336E60EC3DF0000E426EC3
:107E3400000E416E42501AE1140E415CD8B016D0C7
:107E4400130E3B6E880E3A6E69EC3EF081B003D09F
:107E5400406A402A01D0406A81504018FE0B401805
:107E6400816E414A422A425001E1E6D78090010ED8
:107E7400346EF40E336E60EC3DF0000E426E000E74
:107E8400416E42501AE1140E415CD8B016D0130E64
:107E94003B6E880E3A6E69EC3EF081B003D0406AC6
:107EA400402A01D0406A81504018FE0B4018816E70
:107EB400414A422A425001E1E6D7808012000F0E67
:107EC400C16E000E926E8090809294689390949408
:107ED40030EC3EF059D080808092B0EC3DF0010E41
:107EE400F8EC3DF0800EF8EC3DF0000E466E000E0E
:107EF400456E46BE06D0465012E1120E455CD8B01F
:107F04000ED0010E4524D96E000E4620DA6EDF50E5
:107F1400476E4750A6EC3EF0454A462AEAD794EC11
:107F24003DF0130E346E880E336E60EC3DF0010E9E
:107F3400F8EC3DF0800EF8EC3DF0000E466E000EBD
:107F4400456E46BE06D0465012E10C0E455CD8B0D4
:107F54000ED0260E4524D96E000E4620DA6EDF5070
:107F6400476E4750A6EC3EF0454A462AEAD7F0EC65
:107F74003EF07AEC3DF0010EF8EC3DF0800EF8ECAA
:107F84003DF0809082B0FED782A034D0A4D7808206
:107F94008090B0EC3DF00B0E3B6EB80E3A6E69EC7F
:107FA4003EF0B0EC3DF0010EF8EC3DF0800EF8EC44
:107FB4003DF0000E446E000E436E44BE06D04450A5
:107FC40016E1110E435CD8B012D0140E4324D96EBE
:107FD400000E4420DA6EDF50476E4750A6EC3EF0A8
:107FE400434A442A44BEF1D7445001E1EAD780927F
:0C7FF40082B2FED782A200EF08F0C9D7CD
:020000040020DA
:08000000FFFFFFFFFFFFFFFF00
:020000040030CA
:0E00000000051F1FFF8385FF0FC00FE00F409C
:00000001FF
